{
  "contractName": "Crowdfunding",
  "abi": [
    {
      "anonymous": false,
      "inputs": [
        {
          "indexed": false,
          "internalType": "uint256",
          "name": "id",
          "type": "uint256"
        },
        {
          "indexed": false,
          "internalType": "string",
          "name": "name",
          "type": "string"
        },
        {
          "indexed": false,
          "internalType": "address",
          "name": "owner",
          "type": "address"
        },
        {
          "indexed": false,
          "internalType": "uint256",
          "name": "targetAmount",
          "type": "uint256"
        }
      ],
      "name": "CampaignCreated",
      "type": "event"
    },
    {
      "anonymous": false,
      "inputs": [
        {
          "indexed": false,
          "internalType": "address",
          "name": "contributor",
          "type": "address"
        },
        {
          "indexed": false,
          "internalType": "uint256",
          "name": "campaignId",
          "type": "uint256"
        },
        {
          "indexed": false,
          "internalType": "uint256",
          "name": "amount",
          "type": "uint256"
        }
      ],
      "name": "Contributed",
      "type": "event"
    },
    {
      "inputs": [
        {
          "internalType": "uint256",
          "name": "",
          "type": "uint256"
        }
      ],
      "name": "campaigns",
      "outputs": [
        {
          "internalType": "uint256",
          "name": "id",
          "type": "uint256"
        },
        {
          "internalType": "string",
          "name": "name",
          "type": "string"
        },
        {
          "internalType": "address",
          "name": "owner",
          "type": "address"
        },
        {
          "internalType": "uint256",
          "name": "targetAmount",
          "type": "uint256"
        },
        {
          "internalType": "uint256",
          "name": "totalAmount",
          "type": "uint256"
        },
        {
          "internalType": "bool",
          "name": "isActive",
          "type": "bool"
        }
      ],
      "stateMutability": "view",
      "type": "function",
      "constant": true
    },
    {
      "inputs": [
        {
          "internalType": "address",
          "name": "",
          "type": "address"
        },
        {
          "internalType": "uint256",
          "name": "",
          "type": "uint256"
        }
      ],
      "name": "contributions",
      "outputs": [
        {
          "internalType": "uint256",
          "name": "",
          "type": "uint256"
        }
      ],
      "stateMutability": "view",
      "type": "function",
      "constant": true
    },
    {
      "inputs": [],
      "name": "totalCampaigns",
      "outputs": [
        {
          "internalType": "uint256",
          "name": "",
          "type": "uint256"
        }
      ],
      "stateMutability": "view",
      "type": "function",
      "constant": true
    },
    {
      "inputs": [
        {
          "internalType": "string",
          "name": "name",
          "type": "string"
        },
        {
          "internalType": "uint256",
          "name": "targetAmount",
          "type": "uint256"
        }
      ],
      "name": "createCampaign",
      "outputs": [],
      "stateMutability": "nonpayable",
      "type": "function"
    },
    {
      "inputs": [
        {
          "internalType": "uint256",
          "name": "campaignId",
          "type": "uint256"
        }
      ],
      "name": "contribute",
      "outputs": [],
      "stateMutability": "payable",
      "type": "function",
      "payable": true
    },
    {
      "inputs": [
        {
          "internalType": "uint256",
          "name": "campaignId",
          "type": "uint256"
        }
      ],
      "name": "getCampaign",
      "outputs": [
        {
          "internalType": "uint256",
          "name": "",
          "type": "uint256"
        },
        {
          "internalType": "string",
          "name": "",
          "type": "string"
        },
        {
          "internalType": "address",
          "name": "",
          "type": "address"
        },
        {
          "internalType": "uint256",
          "name": "",
          "type": "uint256"
        },
        {
          "internalType": "uint256",
          "name": "",
          "type": "uint256"
        },
        {
          "internalType": "bool",
          "name": "",
          "type": "bool"
        }
      ],
      "stateMutability": "view",
      "type": "function",
      "constant": true
    },
    {
      "inputs": [
        {
          "internalType": "uint256",
          "name": "campaignId",
          "type": "uint256"
        }
      ],
      "name": "withdraw",
      "outputs": [],
      "stateMutability": "nonpayable",
      "type": "function"
    },
    {
      "inputs": [
        {
          "internalType": "uint256",
          "name": "campaignId",
          "type": "uint256"
        }
      ],
      "name": "closeCampaign",
      "outputs": [],
      "stateMutability": "nonpayable",
      "type": "function"
    }
  ],
  "bytecode": "0x608060405234801561001057600080fd5b506116ac806100206000396000f3fe60806040526004361061007b5760003560e01c80635598f8cc1161004e5780635598f8cc14610153578063b0e1c1e114610195578063c1cbbca7146101be578063f102a67c146101da5761007b565b806302932f5614610080578063141961bc146100ab5780632e1a7d4d146100ed578063550b521c14610116575b600080fd5b34801561008c57600080fd5b50610095610203565b6040516100a29190610b2b565b60405180910390f35b3480156100b757600080fd5b506100d260048036038101906100cd9190610b86565b610209565b6040516100e496959493929190610c9f565b60405180910390f35b3480156100f957600080fd5b50610114600480360381019061010f9190610b86565b6102fa565b005b34801561012257600080fd5b5061013d60048036038101906101389190610d33565b610521565b60405161014a9190610b2b565b60405180910390f35b34801561015f57600080fd5b5061017a60048036038101906101759190610b86565b610546565b60405161018c96959493929190610c9f565b60405180910390f35b3480156101a157600080fd5b506101bc60048036038101906101b79190610b86565b6106c7565b005b6101d860048036038101906101d39190610b86565b61079d565b005b3480156101e657600080fd5b5061020160048036038101906101fc9190610ea8565b61097a565b005b60005481565b600160205280600052604060002060009150905080600001549080600101805461023290610f33565b80601f016020809104026020016040519081016040528092919081815260200182805461025e90610f33565b80156102ab5780601f10610280576101008083540402835291602001916102ab565b820191906000526020600020905b81548152906001019060200180831161028e57829003601f168201915b5050505050908060020160009054906101000a900473ffffffffffffffffffffffffffffffffffffffff16908060030154908060040154908060050160009054906101000a900460ff16905086565b6001600082815260200190815260200160002060020160009054906101000a900473ffffffffffffffffffffffffffffffffffffffff1673ffffffffffffffffffffffffffffffffffffffff163373ffffffffffffffffffffffffffffffffffffffff161461039e576040517f08c379a000000000000000000000000000000000000000000000000000000000815260040161039590610fb0565b60405180910390fd5b60016000828152602001908152602001600020600301546001600083815260200190815260200160002060040154101561040d576040517f08c379a00000000000000000000000000000000000000000000000000000000081526004016104049061101c565b60405180910390fd5b6001600082815260200190815260200160002060050160009054906101000a900460ff16610470576040517f08c379a0000000000000000000000000000000000000000000000000000000008152600401610467906110ae565b60405180910390fd5b6000600160008381526020019081526020016000206004015490506000600160008481526020019081526020016000206004018190555060006001600084815260200190815260200160002060050160006101000a81548160ff0219169083151502179055503373ffffffffffffffffffffffffffffffffffffffff166108fc829081150290604051600060405180830381858888f1935050505015801561051c573d6000803e3d6000fd5b505050565b6002602052816000526040600020602052806000526040600020600091509150505481565b600060606000806000806000600160008981526020019081526020016000206040518060c00160405290816000820154815260200160018201805461058a90610f33565b80601f01602080910402602001604051908101604052809291908181526020018280546105b690610f33565b80156106035780601f106105d857610100808354040283529160200191610603565b820191906000526020600020905b8154815290600101906020018083116105e657829003601f168201915b505050505081526020016002820160009054906101000a900473ffffffffffffffffffffffffffffffffffffffff1673ffffffffffffffffffffffffffffffffffffffff1673ffffffffffffffffffffffffffffffffffffffff16815260200160038201548152602001600482015481526020016005820160009054906101000a900460ff1615151515815250509050806000015181602001518260400151836060015184608001518560a001519650965096509650965096505091939550919395565b6001600082815260200190815260200160002060020160009054906101000a900473ffffffffffffffffffffffffffffffffffffffff1673ffffffffffffffffffffffffffffffffffffffff163373ffffffffffffffffffffffffffffffffffffffff161461076b576040517f08c379a00000000000000000000000000000000000000000000000000000000081526004016107629061111a565b60405180910390fd5b60006001600083815260200190815260200160002060050160006101000a81548160ff02191690831515021790555050565b806001600082815260200190815260200160002060050160009054906101000a900460ff16610801576040517f08c379a00000000000000000000000000000000000000000000000000000000081526004016107f890611186565b60405180910390fd5b60003411610844576040517f08c379a000000000000000000000000000000000000000000000000000000000815260040161083b90611218565b60405180910390fd5b34600260003373ffffffffffffffffffffffffffffffffffffffff1673ffffffffffffffffffffffffffffffffffffffff168152602001908152602001600020600084815260200190815260200160002060008282546108a49190611267565b92505081905550346001600084815260200190815260200160002060040160008282546108d19190611267565b92505081905550600160008381526020019081526020016000206003015460016000848152602001908152602001600020600401541061093b5760006001600084815260200190815260200160002060050160006101000a81548160ff0219169083151502179055505b7ffa35a310d7113dddce1c275da946348e9aaebf9050b00b372033c4d84b0bd6eb33833460405161096e9392919061129b565b60405180910390a15050565b600081116109bd576040517f08c379a00000000000000000000000000000000000000000000000000000000081526004016109b490611344565b60405180910390fd5b6000808154809291906109cf90611364565b91905055506040518060c0016040528060005481526020018381526020013373ffffffffffffffffffffffffffffffffffffffff16815260200182815260200160008152602001600115158152506001600080548152602001908152602001600020600082015181600001556020820151816001019081610a509190611558565b5060408201518160020160006101000a81548173ffffffffffffffffffffffffffffffffffffffff021916908373ffffffffffffffffffffffffffffffffffffffff160217905550606082015181600301556080820151816004015560a08201518160050160006101000a81548160ff0219169083151502179055509050507f85d038f2d0b3728e5fede2ce367934666edeabb735999e2be302dc035466b98b600054833384604051610b06949392919061162a565b60405180910390a15050565b6000819050919050565b610b2581610b12565b82525050565b6000602082019050610b406000830184610b1c565b92915050565b6000604051905090565b600080fd5b600080fd5b610b6381610b12565b8114610b6e57600080fd5b50565b600081359050610b8081610b5a565b92915050565b600060208284031215610b9c57610b9b610b50565b5b6000610baa84828501610b71565b91505092915050565b600081519050919050565b600082825260208201905092915050565b60005b83811015610bed578082015181840152602081019050610bd2565b60008484015250505050565b6000601f19601f8301169050919050565b6000610c1582610bb3565b610c1f8185610bbe565b9350610c2f818560208601610bcf565b610c3881610bf9565b840191505092915050565b600073ffffffffffffffffffffffffffffffffffffffff82169050919050565b6000610c6e82610c43565b9050919050565b610c7e81610c63565b82525050565b60008115159050919050565b610c9981610c84565b82525050565b600060c082019050610cb46000830189610b1c565b8181036020830152610cc68188610c0a565b9050610cd56040830187610c75565b610ce26060830186610b1c565b610cef6080830185610b1c565b610cfc60a0830184610c90565b979650505050505050565b610d1081610c63565b8114610d1b57600080fd5b50565b600081359050610d2d81610d07565b92915050565b60008060408385031215610d4a57610d49610b50565b5b6000610d5885828601610d1e565b9250506020610d6985828601610b71565b9150509250929050565b600080fd5b600080fd5b7f4e487b7100000000000000000000000000000000000000000000000000000000600052604160045260246000fd5b610db582610bf9565b810181811067ffffffffffffffff82111715610dd457610dd3610d7d565b5b80604052505050565b6000610de7610b46565b9050610df38282610dac565b919050565b600067ffffffffffffffff821115610e1357610e12610d7d565b5b610e1c82610bf9565b9050602081019050919050565b82818337600083830152505050565b6000610e4b610e4684610df8565b610ddd565b905082815260208101848484011115610e6757610e66610d78565b5b610e72848285610e29565b509392505050565b600082601f830112610e8f57610e8e610d73565b5b8135610e9f848260208601610e38565b91505092915050565b60008060408385031215610ebf57610ebe610b50565b5b600083013567ffffffffffffffff811115610edd57610edc610b55565b5b610ee985828601610e7a565b9250506020610efa85828601610b71565b9150509250929050565b7f4e487b7100000000000000000000000000000000000000000000000000000000600052602260045260246000fd5b60006002820490506001821680610f4b57607f821691505b602082108103610f5e57610f5d610f04565b5b50919050565b7f4f6e6c792063616d706169676e206f776e65722063616e207769746864726177600082015250565b6000610f9a602083610bbe565b9150610fa582610f64565b602082019050919050565b60006020820190508181036000830152610fc981610f8d565b9050919050565b7f546172676574206e6f74206d6574000000000000000000000000000000000000600082015250565b6000611006600e83610bbe565b915061101182610fd0565b602082019050919050565b6000602082019050818103600083015261103581610ff9565b9050919050565b7f43616d706169676e206d7573742062652061637469766520746f20776974686460008201527f7261770000000000000000000000000000000000000000000000000000000000602082015250565b6000611098602383610bbe565b91506110a38261103c565b604082019050919050565b600060208201905081810360008301526110c78161108b565b9050919050565b7f4f6e6c792063616d706169676e206f776e65722063616e20636c6f7365000000600082015250565b6000611104601d83610bbe565b915061110f826110ce565b602082019050919050565b60006020820190508181036000830152611133816110f7565b9050919050565b7f43616d706169676e206973206e6f742061637469766500000000000000000000600082015250565b6000611170601683610bbe565b915061117b8261113a565b602082019050919050565b6000602082019050818103600083015261119f81611163565b9050919050565b7f436f6e747269627574696f6e206d75737420626520677265617465722074686160008201527f6e20300000000000000000000000000000000000000000000000000000000000602082015250565b6000611202602383610bbe565b915061120d826111a6565b604082019050919050565b60006020820190508181036000830152611231816111f5565b9050919050565b7f4e487b7100000000000000000000000000000000000000000000000000000000600052601160045260246000fd5b600061127282610b12565b915061127d83610b12565b925082820190508082111561129557611294611238565b5b92915050565b60006060820190506112b06000830186610c75565b6112bd6020830185610b1c565b6112ca6040830184610b1c565b949350505050565b7f54617267657420616d6f756e74206d757374206265206772656174657220746860008201527f616e203000000000000000000000000000000000000000000000000000000000602082015250565b600061132e602483610bbe565b9150611339826112d2565b604082019050919050565b6000602082019050818103600083015261135d81611321565b9050919050565b600061136f82610b12565b91507fffffffffffffffffffffffffffffffffffffffffffffffffffffffffffffffff82036113a1576113a0611238565b5b600182019050919050565b60008190508160005260206000209050919050565b60006020601f8301049050919050565b600082821b905092915050565b60006008830261140e7fffffffffffffffffffffffffffffffffffffffffffffffffffffffffffffffff826113d1565b61141886836113d1565b95508019841693508086168417925050509392505050565b6000819050919050565b600061145561145061144b84610b12565b611430565b610b12565b9050919050565b6000819050919050565b61146f8361143a565b61148361147b8261145c565b8484546113de565b825550505050565b600090565b61149861148b565b6114a3818484611466565b505050565b5b818110156114c7576114bc600082611490565b6001810190506114a9565b5050565b601f82111561150c576114dd816113ac565b6114e6846113c1565b810160208510156114f5578190505b611509611501856113c1565b8301826114a8565b50505b505050565b600082821c905092915050565b600061152f60001984600802611511565b1980831691505092915050565b6000611548838361151e565b9150826002028217905092915050565b61156182610bb3565b67ffffffffffffffff81111561157a57611579610d7d565b5b6115848254610f33565b61158f8282856114cb565b600060209050601f8311600181146115c257600084156115b0578287015190505b6115ba858261153c565b865550611622565b601f1984166115d0866113ac565b60005b828110156115f8578489015182556001820191506020850194506020810190506115d3565b868310156116155784890151611611601f89168261151e565b8355505b6001600288020188555050505b505050505050565b600060808201905061163f6000830187610b1c565b81810360208301526116518186610c0a565b90506116606040830185610c75565b61166d6060830184610b1c565b9594505050505056fea2646970667358221220101d9e878197b44d1120d16db7d43944fb7053fa469d9d986e0de1b8b7ac7d1864736f6c63430008110033",
  "immutableReferences": {},
  "source": "// SPDX-License-Identifier: GPL-3.0\r\npragma solidity >=0.8.2 <0.9.0;\r\n\r\ncontract Crowdfunding {\r\n    struct Campaign {\r\n        uint256 id;\r\n        string name;\r\n        address owner;\r\n        uint256 targetAmount;\r\n        uint256 totalAmount;\r\n        bool isActive;\r\n    }\r\n\r\n    uint256 public totalCampaigns;\r\n    mapping(uint256 => Campaign) public campaigns;\r\n    mapping(address => mapping(uint256 => uint256)) public contributions;\r\n\r\n    event CampaignCreated(uint256 id, string name, address owner, uint256 targetAmount);\r\n    event Contributed(address contributor, uint256 campaignId, uint256 amount);\r\n\r\n    modifier onlyActive(uint256 campaignId) {\r\n        require(campaigns[campaignId].isActive, \"Campaign is not active\");\r\n        _;\r\n    }\r\n\r\n    function createCampaign(string memory name, uint256 targetAmount) public {\r\n        require(targetAmount > 0, \"Target amount must be greater than 0\");\r\n        \r\n        totalCampaigns++;\r\n        campaigns[totalCampaigns] = Campaign(totalCampaigns, name, msg.sender, targetAmount, 0, true);\r\n        \r\n        emit CampaignCreated(totalCampaigns, name, msg.sender, targetAmount);\r\n    }\r\n\r\n    function contribute(uint256 campaignId) public payable onlyActive(campaignId) {\r\n        require(msg.value > 0, \"Contribution must be greater than 0\");\r\n\r\n        contributions[msg.sender][campaignId] += msg.value;\r\n        campaigns[campaignId].totalAmount += msg.value;\r\n\r\n        // Automatically close the campaign if the target amount is reached\r\n        if (campaigns[campaignId].totalAmount >= campaigns[campaignId].targetAmount) {\r\n            campaigns[campaignId].isActive = false;\r\n        }\r\n\r\n        emit Contributed(msg.sender, campaignId, msg.value);\r\n    }\r\n\r\n    function getCampaign(uint256 campaignId) public view returns (uint256, string memory, address, uint256, uint256, bool) {\r\n        Campaign memory campaign = campaigns[campaignId];\r\n        return (campaign.id, campaign.name, campaign.owner, campaign.targetAmount, campaign.totalAmount, campaign.isActive);\r\n    }\r\n\r\n    function withdraw(uint256 campaignId) public {\r\n        require(msg.sender == campaigns[campaignId].owner, \"Only campaign owner can withdraw\");\r\n        require(campaigns[campaignId].totalAmount >= campaigns[campaignId].targetAmount, \"Target not met\");\r\n        require(campaigns[campaignId].isActive, \"Campaign must be active to withdraw\");\r\n\r\n        uint256 amount = campaigns[campaignId].totalAmount;\r\n        campaigns[campaignId].totalAmount = 0;\r\n        campaigns[campaignId].isActive = false; // Optionally set inactive after withdrawal\r\n        payable(msg.sender).transfer(amount);\r\n    }\r\n\r\n    function closeCampaign(uint256 campaignId) public {\r\n        require(msg.sender == campaigns[campaignId].owner, \"Only campaign owner can close\");\r\n        campaigns[campaignId].isActive = false;\r\n    }\r\n}",
  "sourcePath": "D:\\blockchain\\contracts\\blockchain.sol",
  "compiler": {
    "name": "solc",
    "version": "0.8.17+commit.8df45f5f.Emscripten.clang"
  },
  "schemaVersion": "3.4.16",
  "updatedAt": "2024-11-07T09:18:07.368Z",
  "networkType": "ethereum",
  "devdoc": {
    "kind": "dev",
    "methods": {},
    "version": 1
  },
  "userdoc": {
    "kind": "user",
    "methods": {},
    "version": 1
  }
}